:100000000000012075030000A1020000A102000011
:10001000A1020000A1020000A1020000A102000054
:10002000A1020000A1020000A1020000A102000044
:10003000A1020000A1020000A1020000A102000034
:10004000A1020000A1020000A1020000A102000024
:1002980062B6704772B67047684600F001F8FEE72C
:1002A80070B5044600F078FC0546224806F0F4F8DC
:1002B8000F2D9DBF204B214853F82510A5F11001A3
:1002C80088BF1F4806F0E8F822681E481E4906F055
:1002D800E3F862681D491B4806F0DEF81C4806F082
:1002E800DBF8A26817481B4906F0D6F8E2681A49F5
:1002F800144806F0D1F8164806F0CEF822691148DD
:10030800164906F0C9F8626915490E4806F0C4F89E
:100318000F4806F0C1F8A2690A48124906F0BCF86D
:10032800E2690848104906F0B7F80948BDE8704086
:1003380006F0B2B8480E0100080E0100783201003C
:10034800600E01006C0E0100780E01007C0E0100A9
:10035800902A0100800E0100840E0100880E010021
:100368008C0E0100900E0100940E010010B572B6BB
:1003780009480A4A0A49121A00F086FA09480A493D
:100388000A1A002100F012FA084A094B1A60BDE85F
:10039800104000F03DBE00BF00000020980E002075
:1003A800104D0100980E0020B83F002000F00020FA
:1003B800980E00200023CA5CC2540133002AFAD1E7
:1003C800704700BF002312F0010F10B404D00C785E
:1003D800013A047001237CB172B1CC5C03F1010CC9
:1003E800C454013A44B111F80C400CF1010300F86F
:1003F8000C40013A002CEFD110BC704790F9003046
:1004080010B463B1024612F9014F002CFBD100234E
:10041800CC5CD4540133002CFAD110BC704702468E
:10042800F5E700BF70B41346002A32D090F90020D7
:10043800002A30D0024612F9014F002CFBD10C786B
:1004480003F1FF3C0CF00106147014B34FF0010CDB
:100458009C4502EB0C051AD04EB111F80C4002F87D
:100468000C40B4B14FF0020C01359C450FD011F887
:100478000C600CF10104013502F80C60013504F13F
:10048800010C36B10E5D16551EB19C45EFD1002307
:100498002B7070BC70470246D1E700BF10B4002330
:1004A800C25CCC5C0133141BE4B224B9002AF7D136
:1004B800104610BC704760B2FBE700BF70B413462B
:1004C800AAB104780A78A21AD2B2002A30D174B13B
:1004D8005C1E14F0010F944627D045784A782346CD
:1004E800AA1AD2B2002A23D14FF0010CEDB900208C
:1004F80070BC704701EB0C0500EB0C046A7864785B
:100508000CF1010CA21AD2B200EB0C0601EB0C059F
:1005180072B9002CEBD074786A78013BA21AD2B277
:1005280032B90CF1010C002CE1D0013BE2D1DEE73D
:1005380050B2DDE7037849B25AB28A4208D033B1E3
:1005480010F8013F4FFA83FC8C45F8D17047002022
:10055800704700BF90F9002003462AB1024612F9FD
:10056800010F0028FBD1D21A981890F900C049B29F
:100578008C4502F0010215D00138834210D832B1FF
:1005880090F900208A420CD00138834208D890F9AB
:1005980000208A4205D010F901CD8C45F4D170476E
:1005A80000207047704700BF90F9003033B1034610
:1005B80013F9012F002AFBD1181A70471846704703
:1005C800D9B190F90020C2B14B1E13F0010F0246B9
:1005D8000CD1013243B192F90010013B21B112F95B
:1005E800011F013B0029F4D1101A7047024612F985
:1005F800011F013B0029ECD1F6E70020704700BF3E
:1006080070B403780246C3B10E78B6B176B2002052
:100618005BB29E4218BF0C4602D109E0634507D081
:10062800657801344FFA85FC002DF7D170BC70470E
:100638000130135C002BEBD1F8E70020F6E700BF90
:10064800F0B40378ABB10E78054677B2284666B1A8
:100658005BB29F420ED00A4601E063450AD0547847
:1006680001324FFA84FC002CF7D115F8013F002B1A
:10067800ECD10020F0BC70472DE9F004002844D0EC
:10068800274E0478002C45D00D78002D45D0002742
:100698004FFA85FA64B2A24518BF0A4602D124E08F
:1006A800A44522D0537801324FFA83FC002BF7D1AE
:1006B800C0190378002B2DD007464FFA85FA65B18B
:1006C8005BB29A4516D00A4601E09C4512D0547890
:1006D80001324FFA84FC002CF7D117F8013F002BA8
:1006E800EDD13360BDE8F00470470137C45D002CDC
:1006F800D0D1DDE73B46002FF3D097F90020002A40
:10070800EFD0002103F8011BEBE7054E3068002805
:10071800E8D0B6E700203060E4E72F46C8E700BF1E
:100728009C0E002003682DE9F004CBB11D78ADB113
:100738000F781E464FFA87FA67B16DB2AA4513D0F3
:100748000A4601E0AC450FD0547801324FFA84FCD8
:10075800002CF7D116F8015F002DEDD100220260C0
:100768001846BDE8F00470473246002EF7D0002145
:1007780002F8011B0260F3E7034608B91846704700
:10078800017879B140780028F8D01A4603E0D0788B
:1007980002320028F2D05170917810700029F6D1F9
:1007A800184670470B461846704700BF10F0030FF5
:1007B80030B404462AD101F0FF0343EA032C43EA8C
:1007C8000C25032A43EA052520D9A2F1040C0423A9
:1007D800BCF1030F0560CCF3800410D92CB1A2F151
:1007E80008040823032C456009D903F1040CC550FB
:1007F8000CF10403D41A032C40F80C50F5D8043A31
:1008080022F00304231DC41802F00302AAB1531EE8
:1008180003F001050123C9B29A4221700DD01DB120
:1008280002239A42617008D003F1010CE1540CF1E3
:1008380001039A4204F80C10F6D130BC704700BF8F
:10084800034610B41046E2B11C7802F1FF3C0122C5
:1008580082420C700CEA020413D034B193F801C040
:100868000222824281F801C00BD09C5C02F1010C8B
:100878008C5413F80C400CF10102824201F80C4030
:10088800F3D1084610BC704741EA000313F0030F88
:1008980030B404460D4628D1032A26D90C68A2F1A3
:1008A800040C0423BCF1030F0460CCF3800414D9B6
:1008B80034B14D68A2F108040823032C45600CD913
:1008C800CC5803F1040CC4500CF1040351F80C503B
:1008D800D41A032C40F80C50F2D8043A22F003053D
:1008E8002B1DCD1802F00302C418CAB12978531E73
:1008F800217003F0010101239A4211D021B16978D6
:1009080002239A4261700BD015F803C0591C04F8F1
:1009180003C015F801C04B1C9A4204F801C0F3D17A
:1009280030BC70478842F0B41FD8E2B10C7801237C
:1009380002F1FF3C934204700CEA030413D034B173
:1009480091F801C00223934280F801C00BD0CC5C1F
:1009580003F1010CC45411F80C400CF1010393424B
:1009680000F80C40F3D1F0BC7047002AFBD089187E
:1009780011F8013C8418551E04F8013C05F00106E5
:100988004FF0FF33002DEED03EB111F802CC022A11
:100998006FF0010304F802CCE5D0CD1815F8017CFE
:1009A80003F1FF3CE61806F8017C01EB0C0515F88D
:1009B800017C0CF1FF3304EB0C069D1806F8017C52
:1009C800002DEAD1CFE700BFF0B403469446002AD1
:1009D80030D005780A78AD1A29D10CF1FF3616F017
:1009E800010F2A4618D0447848780122201AB446C4
:1009F8001ED19C18881801329F188E180132BCF13C
:100A0800010C0CF1FF3C12D064784078201A0FD109
:100A18007C787078201A0BD19C18881801329F189E
:100A28008E180132BCF1010C0CF1FF3CECD12846C8
:100A3800F0BC70471046FBE71346CAB102788A42F9
:100A480019D05A1E12F0010F0DD010F801CF13461D
:100A58008C4508D1704790F800C08C4509D010F833
:100A6800012F8A4206D00130013B03F1FF33F2D156
:100A780070477047704770472DE9F00E91F90030C4
:100A880083B081463BB10B4613F9012F002AFBD1F5
:100A9800B3EB010A04D1484603B0BDE8F00E704735
:100AA80099F90030002B40D04B4613F9010F00286C
:100AB800FBD1C9EB030BD34535DB4846BAF1000F30
:100AC800EAD00B784FF0000C019319F80C30019A1A
:100AD8009A421FD10AF1FF34002314F0010F524645
:100AE8000AD046784D780123AE42224604D011E060
:100AF8007C787578AC420DD1C518CC180133C7186D
:100B0800CE180133013A02F1FF32C5D06D7864780E
:100B1800A542EDD00CF1010CCCEB0B00824502DCB8
:100B280009EB0C00D1E70020B6E79B46C3E700BFFE
:100B380012F0010FC9B205D090F800C0013A8C45F7
:100B48000DD00130531E4AB190F800C05A1E8C4592
:100B580005D010F8013F8B42F3D17047104670471B
:100B680010B5044600B910BD90F9003083B110F9F2
:100B7800011F0029FBD1001B013005F0AFFE014623
:100B880029B10023E25CCA540133002AFAD110BD0E
:100B98000120F2E7002070474EF60053CEF2000322
:100BA8005868C0B2704700BF4EF69053CEF20003AB
:100BB8009860D9601A6170474EF69053002814BFA8
:100BC80003200020CEF20003586070474EF6905381
:100BD80040F23F00CEF200030021C0F200300322B1
:100BE8009960D96018615A60704700BF08B500F075
:100BF800A9F900F067F800F0E7F843461A6841F2EF
:100C08005E11D16000F0A0F9404603684FF0204221
:100C18001A61002008BD00BF012A2DE9F0441546DD
:100C28001C4631D000211022586809F029FE022DF7
:100C38008246D8BF1D4F10DC1D4E00251D48216877
:100C480005F02AFC2B4650461B4D39463246A8472C
:100C5800051E21DD2846BDE8F08400211022A06889
:100C680009F00EFE032D0746E6D000211022E068A9
:100C780009F006FE042D064616D020690021102230
:100C880009F064FE0546D9E719680C48002505F007
:100C980003FC2846BDE8F084216809482A4605F087
:100CA800FBFB2846BDE8F084043DC7E70040002070
:100CB800008000002C0F0100B50C0020080F010077
:100CC800500F010030B44EF210034FF6FE74CEF20E
:100CD8000003C0F2FF0406495C60002000240025E0
:100CE80001229860C1E900451A6030BC704700BF16
:100CF800A00E00204EF21000CEF200008268034BD6
:100D0800002000219A60C3E900017047A00E00206E
:100D1800012000F00DB900BF10B50446012000F015
:100D280007F94DF6836CC4F21B3CACFB00218B0C1D
:100D380004FB03F44EF21001CEF200018A689442DB
:100D48000AD902F18073981E041B88688242FCD875
:100D58008B68A342F9D810BD141B8868A04202D939
:100D68008B689A42F9D210BD2DE9D04C154B4EF242
:100D78001004CEF200049F68A2680446BA4284BFF9
:100D880007F18077023FBE1AD3E9000110EB060A8B
:100D980041F1000B5F465646C3E900679A6001209F
:100DA80000F0C6F844F6D351C1F26201A1FB00B2CB
:100DB80000235046394692090FF06EFB001BBDE830
:100DC800D08C00BFA00E002048F20003C4F2030339
:100DD80010B4D3F89400194620F00402C3F8942004
:100DE800D1F8504148F2000314F0010FC4F2030394
:100DF800F6D0D3F89400194620F00102C3F89420E5
:100E0800D1F8504148F2000314F0020FC4F2030372
:100E1800F6D0D3F89840444A24F48051C3F8981087
:100E2800D3F898104BF68070C1F3422CC0F67600C8
:100E3800BCF1070F1060D3F890003BD14BF6807CD3
:100E48000124C0F6760CC0F30240BCFBF4F307287B
:100E580053603DD14BF6807C0120C0F6760CBCFB7C
:100E6800F0F3C1F38200072893603FD14BF6807CF2
:100E78000120C0F6760CBCFBF0F3C1F34210072842
:100E8800D36041D14BF6807C0120C0F6760CC1F3CB
:100E98004231BCFBF0F30729136143D0234850F8D3
:100EA80021104BF6807CC0F6760CBCFBF1F3536145
:100EB80010BC70471D4BC0F3024053F82C404BF652
:100EC800807CC0F6760CBCFBF4F307285360C1D0D5
:100ED800164B4BF6807C53F82000C0F6760CBCFB12
:100EE800F0F3C1F3820007289360BFD00F4B4BF695
:100EF800807C53F82000C0F6760CBCFBF0F3C1F3FD
:100F080042100728D360BDD0084B4BF6807C53F8BD
:100F18002000C0F6760CC1F34231BCFBF0F3072980
:100F28001361BBD10121BCE7B00E0020B40F010052
:100F3800052803D8024B53F820007047002070475B
:100F4800B00E0020704700BF48F20003C4F203034C
:100F5800012098619A6C42F080019964986C20F0A5
:100F680080029A64FFF732BE704700BF704700BF27
:100F7800704700BF704700BF704700BF704700BF91
:100F8800704700BF704700BF704700BF08B50248F0
:100F980005F06AFAFEE700BFF80F01004046036853
:100FA80010B59C69044805F05FFA2046034908F02B
:100FB8001DFE002010BD00BF24100100902A010072
:100FC80008B50348034905F067FA002008BD00BFCB
:100FD8002C100100D00F010070B590B040220B48D2
:100FE800694604F03FFA444600286D462668D8BF93
:100FF8004FF4E13004DD684600210A2209F040FC84
:10100800A060A3680020336010B070BD34100100E8
:1010180010B5334C2068A0F54058A8F120080021ED
:1010280020224046FFF7C2FB4146A8F11C020A6095
:1010380008681C220021FFF7B9FB41462068294BAC
:101048004C68294AD3F800C044F001044C60136886
:101058002649C0EB0C0008604BB1144602E054F876
:10106800043F23B198470028F9D0FFF78FFF40F2DB
:1010780000004FF48011CAF2F03005F071FF06F05D
:1010880055F91B4843461C6804F060FA09F098FBC0
:10109800606007F053FE06F0E5F905F055FA00F038
:1010A80033F8144804F052FA28B10021102209F04C
:1010B800E7FB11490860114804F048FA014618B1E5
:1010C8000F48802200F050FC0E4805F0CDF942464A
:1010D800106800F015FB07F035FA07F033FAFAE765
:1010E800980E0020980E002000000020C80E002056
:1010F8004010010048100100540000205410010065
:101108003028002060100100704700BF00207047A1
:1011180070B5A2B0044680222C4902A8FFF7B4FBA0
:10112800266BE56AE16BA26B636B29480096019513
:10113800256C05F0B1F9A16A626A236A254805F0B1
:10114800ABF92669E169A26963692348009605F04D
:10115800A3F92668E168A26863682048009605F04C
:101168009BF915F0804F14BF5A227A2215F0005FC0
:1011780014BF4323632305F0704C15F0805F14BF40
:10118800562676261648BCF1000FB4BF4E216E21B4
:10119800009605F081F9206C22AA00F01F01114C7D
:1011A80002EB8103104A10F0800F14BF214611464C
:1011B80010F0400F18BF22460C4C53F8803C0C48E6
:1011C800009405F069F922B070BD00BF68100100F5
:1011D800E8100100301101005411010084110100D0
:1011E800B4110100C8110100C41101003823010025
:1011F800CC11010008B5034809F0CAFC0020024BD5
:10120800984708BDEC110100950C002010B5044664
:10121800044805F041F92046FFF77AFFBDE8104081
:10122800E8E700BF0012010010B50446044805F0C5
:1012380033F92046FFF76CFFBDE81040DAE700BF3E
:101248001412010010B50446044805F025F920469B
:10125800FFF75EFFBDE81040CCE700BF2C1201008D
:1012680010B50446044805F017F92046FFF750FF6B
:10127800BDE81040BEE700BF3812010010B50446B3
:10128800044805F009F92046FFF742FFBDE8104081
:10129800B0E700BF4412010010B50446044805F049
:1012A800FBF82046FFF734FFBDE81040A2E700BF77
:1012B8005412010010B50446044805F0EDF8204624
:1012C800FFF726FFBDE8104094E700BF6812010051
:1012D8004FF0FF30704700BF014B1868704700BFE0
:1012E800CC0E0020104B5A689AB1D8B1136B9A42B1
:1012F8000FD0012110F0010F0DD0884201F1010C2F
:101308000ED01B6B0CF101019A4202D01B6B9A4262
:10131800F3D1002070471B6B9A42FAD00221ECE708
:101328001846704710467047CC0E00200B4A536889
:1013380083B11268934209D0002001E0934206D09D
:101348001B6B0130002BF9D1002070470020002AC8
:10135800FAD070474FF0FF30704700BFCC0E002026
:1013680010B5054C23682BB11846D96A88472368FD
:101378000122DA6110BD00BFCC0E002008B5064B73
:1013880084461B680A4623B1184661465B6A98473B
:1013980008BD4FF0FF3008BDCC0E002008B5054B46
:1013A8001B681BB11846996A884708BD4FF0FF3083
:1013B80008BD00BFCC0E00200349044B0868002874
:1013C80008BF1846704700BFCC0E002088130100E4
:1013D80070B5084D06466C6844B121463046FFF7A3
:1013E8005DF828B1246B6B689C42F6D1002070BD73
:1013F800204670BDCC0E002070B5154C2368002B1C
:1014080021D004F009F8A168054611B1E0688542C9
:1014180006D0104804F09AF8E5600146A06098B13B
:1014280025680B4E284600E0B168FFF737F850B141
:101438002268106B85422060F6D106482946BDE82F
:10144800704004F0A3BA70BD01490D68F5E700BF0C
:10145800CC0E00209013010038B50546144804F05E
:1014680075F818B11349FFF719F890B1124C2368B1
:101478007BB17DB91B6B1148236004F067F858B144
:101488000D4A1168FFF70AF830B9216820698842C7
:101498000AD038BD2361EDE72168084804F076FAE0
:1014A800216820698842F4D1054B01221A6038BDB1
:1014B80098130100A4130100CC0E00209013010022
:1014C8003C0F002038B50F4D0446696851B10A46F3
:1014D80000E01A46136B9942FBD114630020216384
:1014E800E06138BD08486C602C6004F02FF818B132
:1014F8002968FEF7D3FF18B10348296804F046FAB3
:101508006968EBE7CC0E00209013010030B587B076
:1015180001AC0A460546054920460AF08DFA2846D8
:10152800214604F033FA07B030BD00BFA81301000C
:1015380030B50C4683B0002855D001AD102229469D
:1015480009F09EF9019B207093F90020002A48D1E8
:10155800621C002B4AD018462946102209F090F93F
:10156800019B607093F90000002838D1A21C002B61
:101578003FD018461022294609F082F9019BA07035
:1015880093F90020002A28D1E21C002B34D01846F9
:101598002946102209F074F9019BE07093F90000C4
:1015A800C8B9221D002B2AD018461022294609F056
:1015B80067F9019B207193F9002052B9621D002B35
:1015C80020D018462946102209F05AF9607103B054
:1015D80030BD0133F2E70133E3E70133D4E70133E8
:1015E800C4E70133B4E70A4602F8010B002313707D
:1015F800A21C00211170E21C00231370221D00217F
:101608001170621D00231370E1E700BF10B50C468E
:1016180003F09CFF2146FFF78BFF237813F0010F9F
:1016280001D0002010BD607894F802C0E27840EA4A
:101638000C010B432179134362790B431A430CBF06
:101648000020012010BD00BF30B50246084B0948F4
:1016580089B0002A18BF03460D46684619460AF0A5
:10166800EBF9684629466C46FFF7D0FF09B030BD54
:10167800AC130100B41301002DE9F0441E4E82B0F2
:1016880033688246002B31D0746800256F4604E029
:10169800246B7068844210D0013569462846FFF7EC
:1016A800D3FF0028F4D004F1100006226946FFF7A2
:1016B800EBF8246B70688442EED10F490C6823461E
:1016C80018461A6A5146904700284FF0000009DA78
:1016D800FFF7C2FE33689C42F2D14FF0FF3002B0F0
:1016E800BDE8F08433680221D961F8E7034804F0C3
:1016F800BBFE4FF0FF30F2E7CC0E0020C013010014
:101708002DE9F04E574F002382B03B607B600446C2
:10171800402006F0B9FB06F0B5FF204608F004F9B2
:101728000028C0F28F807C68002C00F092804E4820
:1017380003F00CFF8146412006F0A6FB21464B48EA
:1017480004F0AAFE00256E46DFF818B14946204687
:10175800B9F1000F02D0FEF7A1FE00B32846694692
:10176800FFF772FF684642490622FFF72DF9013557
:1017780028BB246B79683F488C4232D004F074FE51
:1017880021463A4804F088FEDFF8D8B0494620469A
:10179800B9F1000FE2D0FEF781FE0028DED136480D
:1017A8003C6004F061FE28466946FFF74DFF684635
:1017B8002F490622FFF708F901350028D9D004F18E
:1017C800100A2B4906225046FFF7FEF8E8B9694689
:1017D80006225046FFF758F8246B796825488C4252
:1017E800CCD1DBF80010002928D0244803F0AEFE45
:1017F800F8B1DBF80010FEF751FED0B90A2004F06A
:101808000FFF284602B0BDE8F08E06226946504612
:10181800FFF7DAF80028DAD02146194804F03CFE30
:101828005146184804F038FE1748694604F034FE5B
:10183800CDE73968114804F0A9F8DFE70F4804F04C
:10184800A5F8DBE72046FFF743FD7C68002C7FF412
:101858006EAF0E4804F008FE6FF03F0006F014FB70
:101868002546CEE7CC0E0020D4130100043B01002E
:1018780080130100E0130100E4130100901301003C
:10188800F01301001C1401003C140100C0130100F6
:10189800014B02221A607047E00E0020704700BF1B
:1018A800014B5860704700BFE00E0020002910B4BB
:1018B8002DDD01234A1E8B4202EA0304028812D05E
:1018C8002CB1022330F803C08B4262440BD003F1E1
:1018D800010C30F8133030F81C40D2180CF1010319
:1018E80012198B42F3D191B201EB124C1FFA8CF30F
:1018F80003EB1C404FF6FE71421CC0F2000102EAE5
:101908000100D0F1010038BF002010BC7047012051
:10191800FBE700BF002910B423DD01234A1E8B42D8
:1019280002EA0304028812D02CB1022330F803C063
:101938008B4262440BD003F1010C30F8133030F8BD
:101948001C40D2180CF1010312198B42F3D11FFA73
:1019580082FC0CEB124290B200EB124188B210BC30
:1019680070470020FBE700BF10B491F90030222B2C
:101978002ED0013A002A12DD0B7883B1222B0ED02B
:1019880002F1FF3C1CF0010F1BD0BCF1000200F873
:10199800013B04DD4B7813B10131222B11D1002119
:1019A800017010BC70474B78611C002BF7D0222BBC
:1019B800F5D000F8013B6378013A002BEFD0222BD9
:1019C800EDD0013A4C1C002A00F8013BEBDCE6E7BD
:1019D8000131013ACDE700BF08B520B101783039AF
:1019E800CBB2092B02D94FF60F7008BD0A2200218D
:1019F80008F046FF82B2130243EA122080B208BD03
:101A080010B503F0A3FDBDE81040E5E7094A1088CA
:101A18004FF6FF72010A41EA00239BB2934207D0B6
:101A28001805030D40F6FF7C634501D0122070476E
:101A38000E20704730000020020A42EA002C1FFAEC
:101A48008CF24FF6FF739A4209D040F6FF7082423B
:101A580005D01305084604491A0D09F0EDBF0846DC
:101A68000249FEF7A7BC00BF6C1401006414010012
:101A780030B5020642EA106500F47F4345EA0324C4
:101A880000F47F0044EA102283B0C2F3072502F075
:101A9800FF04C2F307430846120E03490095019458
:101AA80009F0CAFF03B030BD701401000422FEF72C
:101AB800EBBE00BF70B51B4E4FF6FF733488164659
:101AC800220A42EA0425ADB29D4204461BD00622F2
:101AD800FEF7DAFE2D050622A01D1349FEF7D4FEF7
:101AE8002A0D15F5801F16D0B6B22D0F330A45EA18
:101AF800022543EA06264FF0810C2682E581A4F8E8
:101B08000CC0122070BD0622FEF7BEFEA01D0649BD
:101B18000622FEF7B9FEB0B2010A41EA0026A68104
:101B28000E2070BD30000020E80E0020FFF726BC14
:101B38002DE9F04E934D0D2984B004462861696162
:101B480033DD914E8389728830884FEA122C070A58
:101B58001E0A47EA00204CEA022C46EA032640F611
:101B6800FF724FF6FF7380B21FFA8CFCB6B240F2D8
:101B7800E9579C4508BF9446984214BF034613464C
:101B8800BE4215DDB6F5014F4AD00E3904F10E07F5
:101B98001B051B0D40F6FF70834217D0824204BF1D
:101BA8004FEA0C52120D934210D004B0BDE8F08EEB
:101BB800A08A1B05060A46EA00271B0D40F6FF709F
:101BC80016398342BEB204F11607E7D140F6060C77
:101BD80066453AD048F23502964211D0B6F5006F04
:101BE800E3D11B29E1D97888020A42EA002C1FFABE
:101BF8008CF28A4240F3D680644804F04DFCD4E766
:101C08001B2940F3B980F888020A42EA002C0FFA2F
:101C18008CFEBEF1040F7DD05D4804F025FCC4E7BE
:101C28001129C2DD0005000D9042BED0E789208A47
:101C38003E0A46EA0722060A46EA00271205BEB20D
:101C4800120D123904F11207A2E71B2940F3948000
:101C58003B881A0A42EA032001B20129A5D17888F3
:101C6800030A43EA00210FFA81FCBCF5006F9CD1FE
:101C780097F804A0BAF1060F97D17A79042A94D17B
:101C8800A969DFF8009100298FD007F1180103AB8B
:101C98000191184601990093FEF7F6FDD9F818004E
:101CA800039A07F1080B9042009B7FF47EAFF888F7
:101CB800020A42EA002E1FFA8EF2012A00F0D880AA
:101CC800022A7FF472AFE9692E4C00293FF46DAF08
:101CD800206A00283FF469AF042218460BF1060178
:101CE800FEF7D2FD626A039B9A427FF45EAF5946C3
:101CF8000622206AFEF7C8FD216A0622A06AFEF7BE
:101D0800C3FDE16AA06AFFF739FB00212162E161A6
:101D1800E1624AE73888020A42EA00210BB2012B45
:101D28007FF47AAF7B88190A41EA032C0FFA8CFEFC
:101D3800BEF5006F7FF470AFB88840F2064290425B
:101D48007FF46AAF134807F11801FFF7AFFE2B6B5A
:101D580007F1080423B907F10E010F48FFF7A6FEA3
:101D6800214606220D48FEF78FFD00206C680146CB
:101D780002460346A04718E709481C2204F08CFBDA
:101D880013E700BFE00E002030000020A814010077
:101D980090140100F80E0020100F0020140F0020EE
:101DA8007C1401003B7803F0F00140297FF4FDAE7C
:101DB80003F00F03052B3FF7F8AE38460A21FFF76B
:101DC80075FD00283CD0042203A807F11001FEF796
:101DD8005BFDAB69039A6BB1B3EB020E18BF4FF012
:101DE800010EB2F1FF3F0CBF00200EF001000028E9
:101DF8007FF4DBAEF888020A42EA002399048A0CD1
:101E0800002A7FF4D2AE7B7A012B1DD0112B7FF4F0
:101E1800CCAE3B8BB7F816E0BA8A190A41EA03241C
:101E2800100A4FEA1E2C4CEA0E2140EA0222A3B205
:101E380007F11C006C6889B292B2083BA047B4E66F
:101E48001F4804F011FBB0E697F814C007F114031B
:101E5800BCF1050F7FF4A9AE93F801E0BEF1010FC4
:101E68007FF4A3AE07F11801164804F015FB9CE6B1
:101E78003246A11D2046FFF71DFE4FF4007CA7F84F
:101E880006C05246064607F10E05594607F11200EC
:101E9800FEF7FAFC01982946FFF708FE524609F1B9
:101EA80008015846FEF7F0FC284609F11801FFF72B
:101EB800FDFD204606F11C01FFF760FA75E600BF3C
:101EC800BC140100CC1401002DE9F044294D82B066
:101ED800EE6B294940F606023046FFF7EBFD4FF45A
:101EE80080723418062332524FF0080C4FF0040A5F
:101EF8004FF4807604F108071A462371A4F802C04B
:101F0800E68005F1080184F805A03846FEF7BCFC18
:101F1800A96902AE46F8041D5246314604F10E0086
:101F2800FEF7B2FC0023E375A374E37423756375AD
:101F3800A375EB69A8692A6C83EA0001114201D0F4
:101F48006B6C83B16B62314607F110000422019378
:101F5800FEF79AFCE86BC0F11C010919FFF70EFAAD
:101F680002B0BDE8F084054804F07EFAEB696B62C4
:101F7800E9E700BFE00E002034000020EC14010067
:101F880038B5044610B9054B986438BD034D002098
:101F9800A964FEF7E9FE2C65E86438BDE00E002070
:101FA80038B5254803F0D2FA044618B12349FEF79C
:101FB80075FAE8B9224D6B6D5C1C6C65FFF7D0F9BA
:101FC800AA6D1F4CD2F1010038BF0020FFF744FA78
:101FD80041460868FFF750FBE86D30B1236E0020DA
:101FE800E065DBB90422226038BD0223236038BDD6
:101FF80020461449FEF752FA28B9114DFFF7B0F9F7
:1020080004232B6038BD20460F49FEF747FA68B90C
:1020180001200B4D6B6D9842CED8EFE70B4942F289
:102028001070FFF7ADFF0A49616038BD00212046F6
:102038000A4608F025FCECE71815010024150100F4
:10204800E00E0020A41301002815010099180000D3
:10205800A518000010B50F4CE36903B910BD0020A6
:10206800FEF782FE636E41F28831C21A8A42F5D9C0
:10207800A16E4A1C042AA26603DC6066BDE8104013
:1020880022E7054804F0F0F90020A066BDE81040FA
:1020980086E700BFE00E0020301501002DE9F0446E
:1020A80082B0089F019117F0010F044615469A4621
:1020B80003D007F11C030022C254002633494523EC
:1020C80023706670CB6EBFB207F11C0290B29AB251
:1020D8004FEA122C4FEA102E4EEA002001334CEA48
:1020E800022ECB66A4F804E04FF0FF334FF0400E09
:1020F80011222372608062721831A4F806E004226B
:10210800668104F10C000837FEF7BEFB1FFA8AFA55
:1021180001A90422ADB2BFB204F11000FEF7B4FB6E
:102128004FEA1A2C280A3B0A4CEA0A2A40EA0525F3
:1021380043EA0727A4F814A0E58227836683A21C34
:102148002088638851880232C318508802325B188D
:10215800518802321B18508802325B1851880232AB
:102168001B18508802325B1851881B1892885B181C
:10217800D31898B200EB134C1FFA8CF202EB1C41F7
:10218800C843608102B0BDE8F08400BFE00E0020C3
:102198002DE9F04E84B0934699460C9D0E460029D1
:1021A80028D1344F344C384604F170010622FEF72A
:1021B8000BFC4FF0FF36844600282AD0D4F83CA008
:1021C80039464FF400625046FFF774FC0AEB0007EB
:1021D800384631465A464B460095FFF75FFFE06B9D
:1021E80005F11C033F1AD919FFF7C8F8002004B0FD
:1021F800BDE8F08E1F4F204CB1F1FF3F18BF0746D6
:10220800384604F170010622FEF7DEFB84460028FA
:10221800D4D1D4F828A039464FF400625046CDF8FE
:102228000CC0E6612762FFF745FC0AEB00074B4646
:10223800314638465A460095FFF730FFA26AE06BF0
:10224800B91A1C3109182A4607F11C00FEF71CFBB5
:10225800A36ADDF80CC0FF1A1C3560460126ED198B
:10226800E562A666FEF780FD6066FFF72DFE304644
:10227800BDE700BF34000020E00E00202DE9F04E3D
:10228800904D914C05F5E273DE1C04F1970900238B
:1022980029F01F02414626F01F07012602F5406C6F
:1022A80002F5C06E88B0E362A36523662362E3612A
:1022B8006362E263A76266650F68C5F8A0E1C5F8C6
:1022C800A4C18146FFF74CF8FFF796F83846FFF7A8
:1022D800D3F90028C0F2F08006FA09F240F2131B85
:1022E800C0F2000B02EA0B00B24600922646834673
:1022F800FEF7F2FF062200F110017448FEF7C4FA57
:1023080043461F68C4F800A0019703F085F8D5F884
:10231800C8170746884224D001980422011D6C483A
:10232800FEF7B2FA6B4803F011F908F049FA706445
:10233800694803F00BF908F043FA3064674803F082
:1023480005F908F03DFA30636548FFF759FB654B1E
:1023580058806548FFF754FB5A49624AC1F8C87764
:102368001080B9F1090F2CD9B9F1010FC4F860A098
:1023780059D051D3B9F1030F01D100F0F3F900237B
:10238800C5F8CC37FFF70AF804F068F907460028C3
:1023980040F08A80FFF75EFEA26C384632B1FEF745
:1023A800E3FCF26C336D811A994251D82368032BF0
:1023B80046D0042B2BD0022BE4D1434FC7F858A0AA
:1023C80096E7BBF1000F13D0404848490622FEF7B4
:1023D800FBFA0028C8D1FEF7A9FFB0F1FF3F29D0CA
:1023E800002839D1424804F03FF8FFF7D9FDC9E782
:1023F800009A12F4027FB7D0216B002933D0B36959
:10240800002BE1D13B4804F02FF8FEF7A9FF4FF06D
:10241800FF3008B0BDE8F08E374800270760B76185
:1024280000F04AFCABE7354A0021B161116000F0C9
:1024380079F8A4E7324804F017F8FEF791FFE6E7C9
:10244800D5F8CC17A9B9FEF78BFFD5F8CC07E0E78C
:10245800B06CB7648047A9E701462A4804F01CF825
:10246800FFF79EFD8EE7284803F0FEFFFEF778FF92
:10247800CDE70A46254804F00FF8124903ACD1F815
:10248800CC272046224909F0D7FA2146214803F0F3
:102498007DFA214B1E491A68204609F0CDFA2146DB
:1024A8001E4803F073FACEE7FEF75AFF1C4803F004
:1024B800DBFF4FF0FF30ACE7FEF752FF4FF0FF3085
:1024C800A7E700BFD81F0020E00E0020E80E00207C
:1024D800F80E00205C150100681501007015010058
:1024E8007C15010030000020841501005C140100F7
:1024F800EC150100AC15010068290020B028002067
:10250800CC1501000C1601008C15010034160100D1
:10251800581601005C1601005400002068160100DE
:102528002C1601002DE9F047264DDFF8B4902E68EF
:102538002548741C21462C6003F0AEFFD9F80060D2
:10254800224948F235023046FFF7B4FA204F4FF4DB
:10255800807C341826F800C006254FF0040A4FF096
:1025680008024FF440706280E08039462A4625719F
:1025780084F805A004F10800FEF786F952461549CB
:1025880004F10E00FEF780F92A46394604F11200DC
:10259800FEF77AF94FF0FF33E37623766376A37676
:1025A800D9F80000C0F11C010919FFF7BFFA41F280
:1025B80088300949FFF7E4FC0848BDE8F047FFF711
:1025C8006FB900BFB0280020741601003400002045
:1025D800E80E0020F80E002019260000ED25000066
:1025E8001C0F002010B5084802F0B0FF18B190F990
:1025F80000306E2B03D0BDE8104000F0B3B803489C
:102608000322026010BD00BF88160100E00E002002
:10261800094810B50368042B07DC41F288300749E4
:10262800FFF7AEFCBDE810407CE7054803F01CFF4F
:10263800BDE81040FFF7B4BCB02800201926000000
:1026480094160100F0B53C4883B00768FFF7DEF93F
:102658003A4C1C3021683D184B1E042B69D8DFE822
:1026680003F034271A0327004FF4A0614FF40073D6
:102678003952281D6B803249FDF79CFE1725D4F886
:102688009030D4F88810D4F88C202E480095FFF7A5
:102698007FFD03B0F0BD4FF4A0624FF4407E3A5284
:1026A8002949281DA5F802E0FDF784FE1325E6E771
:1026B800B4F884104FF4806C27F800C0080A40EA88
:1026C80001239AB26A800425D9E74FF4807EAE1CB4
:1026D80027F800E01D493046FDF76CFE1B48FDF762
:1026E80063FF411C76181A4F1A493046FDF762FEFF
:1026F8001949B01DFDF75EFE386844F6D35CC1F297
:10270800620CACFB00130E369A091449304609F0E6
:1027180093F93046FDF748FF421CBB88B6180027DE
:1027280030463A460E49009709F086F93618751B67
:10273800A5E70025A3E700BF1C0F0020B428002050
:10274800E8160100140F0020D8160100B828002050
:102758003C000020BC16010010170100C41601003F
:10276800C8160100F0B56E4883B002F0EFFE0028ED
:1027780000F0CC8000210A2208F0E8F8694DA88012
:10278800694802F0E3FE002800F0B38000210A2225
:1027980008F0DCF8B0F57A7F2860C0F0AF80634FAE
:1027A8006349644C086897F90060C4F88800002EF3
:1027B8007FD1614B61491A6804F19400C2F3074C58
:1027C800C2F30723170ED2B2CDF800C0019709F063
:1027D80033F904F19401201D8022FDF7F3FD5848D8
:1027E800211D84F8836003F057FEFEF7E5FD514E86
:1027F800514F0146534803F04FFE534806F18801F4
:102808003A4603F049FE5149086818B1504A13681E
:10281800002B62D10A204F4E03F002FF4E494F4869
:1028280003F03AFE318841B149024D4803F034FEC5
:1028380033884C49580207F0D9F90A2003F0F0FE12
:10284800494A4A48116803F027FE494803F00CFE3C
:10285800EE6848492868AE60FFF792FB00264648B4
:10286800FFF71EF80123452130462360C4F88C1079
:10287800C4F8A460FEF778FA4AF6AB2CCAF6AA2C7C
:10288800ACFB0032D10A01EB4102A0EB822C0CF523
:102898008063314606223948C4F89030C4F8846011
:1028A800FDF784FF4FF40071298203B0BDE8F040C2
:1028B800C8E638463A21FDF73DFE064640B338469D
:1028C80007F07EFF711CC4F888008022201D0026B6
:1028D800FDF778FD84F8836087E73A68D6F88800C2
:1028E80003EA020E03409E4594D0254803F0D4FD28
:1028F80090E72868B0F57A7FBFF451AF01462148C8
:1029080003F0CAFD4FF47A732B6048E7054D37E7AB
:102918003946201D8022FDF755FD84F8836064E761
:10292800FC1601003C0000200C1701003028002094
:10293800100F0020B4280020F80E002050170100C6
:102948006C17010098170100AC170100240F002034
:10295800200F00202C280020B8280020FC17010098
:102968000C1801003823010054000020241801002D
:102978003C18010091290000DD290000140F0020F7
:10298800DC170100181701000D4A10B50D4CD2F8DC
:10299800A400A168431C8B42C2F8A43009DC0A4891
:1029A80003F062FD20680949FFF7EAFABDE8104024
:1029B80048E6074803F058FDBDE81040FFF7F0BAB5
:1029C800B42800203C00002048180100912900008C
:1029D800941601002DE9F046A04C0546D4F8900065
:1029E80083B0884202D003B0BDE8F086216801298F
:1029F80003D0D4F88C009042F5D1012BF3D92E46A0
:102A080036F8020B9F1E4FEA102C4CEA002080B2C9
:102A1800052800F0C780062874D00328E3D1012FC9
:102A2800E1D96B888D4D180A40EA03239BB2C4F89C
:102A38008430002B00F0F0804CF6CD4003F1FF3CD1
:102A4800CCF6CC40A0FB0CA0C00800EB800ABCEB85
:102A58004A0F00F0FA8043F2FD3ACCF6A61AAAFB18
:102A680003C040F28A2A400A0AFB1030002800F00E
:102A78001681012914BF4FF0000C4FF0010C0529F5
:102A880014BF61464CF00101002900F0AF8000211D
:102A98000220012B2060C4F88C20C4F8AC10C4F8C4
:102AA800B010C4F8A81040F0F1806D4DC4F8B030F3
:102AB8000A236C492868AB60FFF762FAD4F88410DF
:102AC800D4F8AC20B5F810C0481E00FB0C24664BA7
:102AD800023F1A68B11CA0183A46FDF7D5FE6349B3
:102AE8003C190868844288BF0C60FFF7ABFD2B8A4D
:102AF8009F42BFF478AF5E4803F0B6FC5D4A0320FE
:102B0800106070E7C4F88C200522082F226045D990
:102B18000B3B5949304603F00109FDF7BFFCDFF8CC
:102B280040A10146002867D001257419092F35D91D
:102B3800B9F1000F1AD050492046FDF7AFFC014605
:102B4800002861D0013505F1080C013467450DD81E
:102B580024E049493046FDF7A1FC01350146A8B1FA
:102B680005F1090E741C0135774517D942492046ED
:102B7800FDF794FC661C01460028EAD104F1080020
:102B88000A2207F07DFEAAF81000E2E704F1090026
:102B98000A2207F075FEAAF81000E1E703B0BDE8C5
:102BA800F0464FE56B88B11C180A40EA032E1FFA5D
:102BB8008EF2324803F070FC6888020A42EA002C60
:102BC8001FFA8CF3591E012908D82D4803F04CFC34
:102BD800FEF7C6FB274A0421116004E7294803F0E1
:102BE80043FC03B0BDE8F046FFF7DAB9D4F8B020EB
:102BF8009A423FF4F8AE58E705F10A000A2207F0B6
:102C08003FFEAAF810008FE706F109000A2207F034
:102C180037FEAAF8100095E71148D5F8A810D5F89E
:102C2800AC30B0F810C001F1010E03EB0C43190DE4
:102C3800C5F8AC301448C5F8A8E0019203F02CFCA4
:102C4800D5F884302968019A13E72320019203F00C
:102C5800E7FCD5F884302968019A0AE7B4280020EF
:102C68003C0000209129000054000020A4270020E7
:102C7800B0180100E00E00204C180100B81801003F
:102C8800D0180100E418010054180100194608483A
:102C980003F002FC03B0BDE8F046FFF781B9054830
:102CA800019203F0E1FBD5F884302968019AE0E647
:102CB800701801006C1801002DE9F04E5C4FDFF828
:102CC80088B13A6886B0541C21463C60594803F0E4
:102CD800E3FBDBF80050002140F2EE522846FDF7F6
:102CE80065FD4FF4006228465349FEF7E3FE2C18B1
:102CF80004F11C0900250621012689F8021089F82B
:102D08000160267789F8035028460391FEF72CF8CE
:102D180044F6D35CC1F2620CACFB0013C3F38F1210
:102D280006AE100A46F8045D40EA022AA9F808A08F
:102D38003146042204F12800FDF7A6FD314604229D
:102D480004F12C000595FDF79FFD3146042204F19E
:102D580030000595FDF798FD3146042204F1340052
:102D6800DFF8E8A00595FDF78FFD039904F1380019
:102D78000A465146FDF788FD04F58476802204F161
:102D880088002E49FEF7F0FD731C5A1C63214FF092
:102D9800FF3653206FF07D0C84F809C184F80811C0
:102DA8005870967051709AF803009AF8022003043C
:102DB8009AF8051043EA02609AF804C0084340EA0A
:102DC8000C2179602846FDF7CFFF7B683946C31888
:102DD8001A0642EA136C03F47F404CEA002203F41B
:102DE8007F0C42EA1C2041F8040F042204F1200061
:102DF800FDF74AFDDBF80030432220463146F12436
:102E0800C3EB090944230094FFF748F90C4940F63D
:102E1800B830FFF7B5F8A1440A48FEF741FDDBF8E2
:102E280000004946FEF782FE06B0BDE8F08E00BFFE
:102E380068290020F81801003400002030280020FC
:102E4800592E00008D2E00001C0F0020E80E0020D7
:102E5800094810B50368042B07DC41F2883007499C
:102E6800FFF78EF8BDE8104026E7054803F0FCFAA6
:102E7800BDE81040FFF794B868290020592E0000DB
:102E8800941601002DE9F04E443918BF0121432A58
:102E98000CBF0A4641F0010282B004461E460AB938
:102EA800EB2B02D802B0BDE8F08E03785A1E5FFA09
:102EB80082FC591F18BF0121BCF1010F94BF0020EB
:102EC80001F0010008B1062BECD16378012BE9D1A0
:102ED800A0780628E6D10DF1040A211D04225046E7
:102EE800FDF7D2FCA44B01995A689142DAD104F15A
:102EF80010010422A14804F11405FDF7C5FC504651
:102F080029460422FDF7C0FC019F27B129469C48A9
:102F18000422FDF7B9FC9B4F06223D689A48A91880
:102F280004F16C07FDF7B0FC3846FDF73DFB40BBEC
:102F3800964D95F9000018B19548944902F026FD80
:102F480004F1EC0104225046FDF79EFC48F2632C84
:102F58000199C6F2533C61451AD000200146FFF79B
:102F68000FF88C4802F0F2FA20B190F900C0BCF1D9
:102F78006E0F02D0FFF7F6FB94E7874A0320106034
:102F880090E7824D394628468022FEF7EDFCD0E7CF
:102F980004F1F005AE19B542DFD294F8F030FF2BFA
:102FA800DBD07E4FDFF81492DFF808B243B96C1C0F
:102FB800A642D2D92378FF2BCFD02546002BF6D0B6
:102FC8006A78941C2C19A642C7D34FF0000AA7F8B8
:102FD80000A028789246431E272BE9D801A151F872
:102FE80023F000BF53310000B92F00002931000041
:102FF800B92F0000B92F0000BD300000B92F000024
:10300800B92F0000B92F0000B92F0000B92F000018
:103018008D300000FF300000B92F0000B92F0000EC
:10302800B92F0000D1300000B92F0000B92F0000DF
:10303800B92F0000B92F0000B92F0000B92F0000E8
:10304800B92F0000B92F0000B92F0000B92F0000D8
:10305800B92F0000B92F0000B92F0000B92F0000C8
:10306800B92F0000B92F0000B92F0000B92F0000B8
:10307800B92F0000B92F0000B92F0000B92F0000A8
:1030880035310000464991F90000002890D11F2AE7
:1030980007DD4448444920234FF01F0A03F0FCF998
:1030A8005246A91C3E48FDF7EFFB3D4A002302F8B3
:1030B8000A307DE73D480368002B7FF479AFA91CEF
:1030C8000422FDF7E1FB73E79BF9000000287FF479
:1030D8006FAF3F2A07DD3348354940234FF03F0A99
:1030E80003F0DAF95246A91C3248FDF7CDFB00225D
:1030F8000BF80A205CE7022A2DD0042A7FF458AF87
:10310800D5F80200030643EA106E00F47F414EEA48
:10311800012200F47F0342EA132CA7F800C047E716
:103128002548016800297FF443AFC8E799F90010E2
:1031380000297FF43DAF1F2A14DCA91C1F48FDF7A6
:10314800A3FB002309F80A3032E71D480268002A69
:103158007FF42EAFB3E76888010A41EA002EA7F88A
:1031680000E025E70F48174920234FF01F0A03F016
:1031780093F95246E1E700BF68290020F80E0020C5
:10318800100F0020F00E0020140F0020302800201F
:103198005410010088160100E00E00202C280020A1
:1031A800CC2700200C19010044190100A827002091
:1031B80050190100EC270020240F0020AC27002024
:1031C800200F00205C19010008B50320FDF7B0FEB0
:1031D80043469A68996800EBC2000B01B0FBF3F014
:1031E80008BD00BF064B013810B553F820402046F3
:1031F800FFF7EAFF01462046BDE8104000F082B81C
:103208006C1901000120EDE7024B013853F820004A
:1032180000F0A2B86C1901000120F5E708B5044BCD
:10322800013853F8200000F08FF840B208BD00BF05
:103238006C1901000120F1E7034A0139034652F8ED
:103248002100194600F078B86C1901000121F3E754
:103258000A2870B5044609D0094B013953F82150A2
:1032680028462146BDE8704000F066B8044A481E6A
:1032780052F820500D21284600F05EF8F0E700BF14
:103288006C1901000121E3E738B503780D4643B115
:10329800044658B22946FFF7DBFF14F8013F002B1C
:1032A800F7D138BD0121EFE708B54FF08040FFF7AF
:1032B8008BFF01464FF0804000F002F8002008BD67
:1032C800002330B46FF07C020C1403710273037096
:1032D8000371072314F0FF0F4FF0030CCDB218BF92
:1032E800E4B2C1F3072180F80CC080F810C0037263
:1032F80002730570017118BF80F828400323037317
:1033080030BC7047002210B46FF07C0402710323B4
:1033180004730270027107220373C1F3072C03744C
:10332800C9B202726FF07F020273017080F804C0A4
:10333800037310BC704700BF037D13F0200FFBD050
:10334800C9B20170704700BF037D13F0010FFBD0B5
:10335800007840B2704700BF007D00F00100704760
:1033680030B543461C6885B0E2681C481C4903F028
:1033780093F8A26819481B4903F08EF82269174888
:10338800194903F089F800221448184903F084F811
:1033980062691248164903F07FF801ADA2690F4827
:1033A800144903F079F814492846FDF703F828462C
:1033B80002F0CCF8114A2946002818BF02461048E6
:1033C80003F06AF8211D0F4803F066F821680E48DB
:1033D80003F062F8002005B030BD00BF7C19010081
:1033E8008C19010098190100A0190100AC190100FD
:1033F800B8190100C4190100AC130100CC1901006F
:10340800D8190100E4190100F819010008B50346AC
:1034180008461146984708BD012A70B5144619DDBB
:103428005868102200211D1D07F02AFA0646014699
:103438000B4803F031F8611E2A463046FFF7E6FFD5
:1034480004460146003C18BF0124064803F024F84E
:10345800204670BD012402F037FD204670BD00BF34
:10346800341A01005C1A0100704700BF021E18BF21
:10347800012280280CBF002202F0010210B552B9C7
:103488001C6E0648214603F007F80F2004F0FCFCE8
:1034980043461868A047012010BD00BF1C1B01004F
:1034A8002DE9F04EB0F1000C18BF4FF0010C84B0BC
:1034B80080280CBF00200CF001000C461546009334
:1034C80000287ED193F82230009A042B166800F069
:1034D800848000260196022C77DDA868FDF764F841
:1034E8000326A4F1030A471CB4420AF0010A1ADDB4
:1034F800BAF1000F07D0E868FDF756F80426C1199D
:103508004F1CB4420FDD55F82600FDF74DF8013683
:10351800C31955F826005F1CFDF746F80136C71990
:103528000137B442EFDC384603F0D8F914F0010F44
:103538004FF002094FF0000A4FF0200B064620D149
:10354800A968FCF737FF4FF00309A868FDF72CF8C6
:103558004C4527DD06F800B000F1010A043510E0FB
:1035680006F80AB0B968FCF725FFB868FDF71CF83B
:1035780000EB050C09F1010906F80CB00CF1010A81
:103588003D1DA96806EB0A00FCF714FFA868FDF7C3
:103598000BF882442F1D09F101090AF10105701980
:1035A8004C45DDDC0098046E1248214602F074FF99
:1035B8000F2004F069FC42461068019933460E4A10
:1035C800A047012004B0BDE8F08E0C4801F0BEFF12
:1035D800094E002818BF0646E4E70121304603AA31
:1035E80002AB04F0CDF8029900293FF472AF0196BE
:1035F80071E700BF641B010038230100581B01005C
:1036080084B02DE9F04E82B00DF1280C8CE80F0043
:103618009DF83D109DF83CB00D9B06460846019369
:10362800109FDDF844A00E9C0B9DDDF8309004F04F
:1036380005F8BBF1000F21D1B44201464BD0304808
:1036480002F02AFF4C4506D049462046019A4FF41D
:10365800803304F027F9019B2A48E2183A6002F007
:1036680003FF284802F000FFBAF1000F29D0072015
:1036780004F00AFCAC4226D3002008E0BBF1010F9D
:103688000AD02148594602F007FF6FF0020002B045
:10369800BDE8F04E04B0704701461C4802F0FCFE3D
:1036A80020464A464FF4000101AB06F0A5FCB0B92C
:1036B800019960183860134802F0D6FEBAF1000F7D
:1036C800D5D1AC42D8D23A68B24288BF6FF0010077
:1036D800DDD80020DBE70E4802F0DEFEBBE70D4830
:1036E80002F0C2FEBAF1000F02D14FF0FF30CEE770
:1036F8006FF0050004F0C8FB4FF0FF30C7E700BFCC
:10370800C01B0100D41B0100481C0100D81B01008C
:10371800B01B0100F41B01002DE9F04EB14C82B042
:103728000021174682464FF4967220469946FDF7C7
:103738003DF8AD4803F0B6FFC4F8840004F18C00EE
:1037480006F0AEFC03F0BAFF054604F019F9294665
:10375800024604F18C0006F003FE04F18C000BF025
:103768004FFD04F18C0007F015F8012F40F3CB80D2
:10377800D9F804000021102207F082F8054601203C
:1037880004F082FB284603F089FF4FF0000B064641
:10379800C4F854B0C4F850B0054603F0DBFF012864
:1037A80018D0DAF80010914802F076FE6FF06B003E
:1037B80004F06AFB5D46626D8A4E002A54D02846A2
:1037C80003F0C8FF0128834653D0894802F04CFE15
:1037D800012095E08748314602F05EFE336841F6E5
:1037E8005612190641EA136103F47F4041EA002C9E
:1037F80003F47F0B4CEA1B20C2F205727949904210
:10380800D1F884B040F0AB80022004F03DFB304694
:1038180004F0C6F8002800F0D380032004F034FB3D
:10382800304604F005F9BBF1000F0BD0724802F0E6
:103838001BFE304604F0D6F8002800F0CA806F4816
:1038480002F012FE042004F01FFB717F02295DD0F4
:103858006B4802F021FE6FF0030004F015FB002511
:10386800626D604E002AAAD1664802F0FDFD012073
:1038780046E0A97F86F85D10E87F86F85C00287F1F
:1038880086F85E00EA682B694FEA026A4AEA126E15
:1038980002F47F4C4EEA0C2A02F47F024FEA036CD2
:1038A8004CEA136E4AEA122203F47F4A4EEA0A2CC3
:1038B80003F47F0E4CEA1E234032B365736C521931
:1038C800F264002B77D0B369022914BF00220122C9
:1038D8004FEA036A4AEA136E03F47F4A4EEA0A2C57
:1038E80003F47F0E4CEA1E23042914BF114642F04C
:1038F80001013366F9B90120C4F88800A5640020E5
:1039080002B0BDE8F08E404B1D6838E7052004F092
:10391800BBFAB37F022B3DD0042B29D0012B39D021
:10392800DAF80010394802F0B7FD6FF0040004F02F
:10393800ABFA00253FE70528DDD13846324606F1C7
:1039480064074946683602230097019604F0B2F9E5
:103958000028D0D02E4802F087FD5846D0E72D48E1
:1039680002F082FD4FF0FF3004F08EFA002577E771
:10397800294A30460021131D03F002FF3146402238
:103988002648FCF7CFFF266006200126666404F06F
:103998007BFA10E7F36806F14002190641EA136161
:1039A80003F47F4041EA002C03F47F0E4CEA1E2307
:1039B80022656365E2E71A4802F056FD58469FE71C
:1039C800184802F051FD6FF0010004F05DFA00257F
:1039D80046E7154802F060FD6FF0020004F054FA63
:1039E80000253DE7702900206C1C0100441D0100E2
:1039F800881D0100741C0100D41C0100D41B0100A7
:103A0800001D0100681D010054000020201D010058
:103A1800D01D0100A81C0100C02900207429002025
:103A2800AC1D0100BC1C0100F01C01002DE9F04494
:103A380005468AB058680C461746584907221E465C
:103A480002F04EFA331D002836D0D0F80CA0BAF197
:103A5800010F00F09B80524CD4F888309A4528DD3D
:103A68004AEA030094F85E204E4BBAF1100FC4F8EE
:103A7800880053F8225027D007DCBAF1020F2FD064
:103A8800BAF1040F54D000251AE0BAF1400F43D020
:103A9800BAF1800F6FD0BAF1200FF4D150463946F1
:103AA80032462346A847054650B13F4802F0F4FC89
:103AB80006E03E4802F0F0FC284602F005FA01252F
:103AC80028460AB0BDE8F0845046394632462346B7
:103AD800A84705460028F3D0354802F0DDFCEFE79B
:103AE80004F15802EE4692E803008EE8030004F160
:103AF800480C09AD9CE80F00029500250395FFF7D7
:103B08007FFD05460028DBD1A16D099B04F18C00DF
:103B18005A1A06F0FDFCD3E750463946324623468A
:103B2800A84705460028CBD0224802F0B5FCC7E7D5
:103B3800A06E616E04F17405421A04F1700304F179
:103B48008C00009503F0B0FE05460028B8D104AEFD
:103B5800226F3046184907F06FFF3146174801F0C9
:103B680015FF3046626F144907F066FF3146144866
:103B780001F00CFFA4E7FDF7C9FAFFF775FC504602
:103B8800394632462346A847002599E72846214664
:103B98007A1EFFF7C1FD054692E700BF58000020D6
:103BA80070290020D01A0100681E0100F81D0100CC
:103BB800441E0100881E0100241E0100281E010069
:103BC800381E01002DE9F04E144690B00022012C59
:103BD8000F92824689461D4612DD58680EA91022AA
:103BE80006F04EFE0E9B93F90030181E18BF0120F8
:103BF8003A2B0CBF002000F0010008B1232B5ED146
:103C08005046494622462B46FFF786FD18B101204B
:103C180010B0BDE8F08EFDF779FA584F6A4607F103
:103C28005803059093E8030082E8030007F1480C65
:103C38000FAE9CE80F00029601260396FFF7E0FC02
:103C4800002829DBB96D0F9ADFF830B1521A0BF151
:103C58008C0006F05DFC97F85DC0BCF1010F35D013
:103C6800082004F011F99BF85E00454A52F82060DC
:103C7800002E4AD0FFF7F8FB5B4621462A46002073
:103C8800B0476FF0080004F0FFF850464946224656
:103C98002B460BF0D3FABAE7B0F1FF3F5BD010F137
:103CA800020F46D010F1030FCCD1059808B1FDF7EB
:103CB8002BFA6FF0060004F0E7F80120A8E7504659
:103CC800494622462B46FFF7B1FEA1E7059B0BB1FB
:103CD800FDF71AFA2B4801F039FC28B12A49FCF7FC
:103CE800DDFB064600283DD03A6E601E110641EA0B
:103CF800126302F47F4C02F47F0143EA0C2E4EEA71
:103D0800112C291DE047002082E7059B1BB1FDF718
:103D1800FBF99BF85E0003F065FC97F85E2001460E
:103D28001A4802F0B9FB6FF0070004F0ADF8012063
:103D38006EE7796C41B197F822B0BBF1040F81D1DD
:103D4800134802F091FB7DE7124802F08DFB6FF0FB
:103D5800700004F099F85046494622462B460BF06D
:103D68006DFA6FE706AC7A6D0B49204607F064FEE2
:103D780021460A4801F00AFE304649E7702900202A
:103D8800D01A01002C1F0100A4130100381F0100E4
:103D9800A81E0100E41E0100581601005C1601006F
:103DA80030B50D4C0D4D8646281B801000EB4005A4
:103DB80005EB051C0CEB0C2583B08C4605EB054583
:103DC8000092019300EB850172462046634602F09B
:103DD80021F903B030BD00BFA85B0100EC5D010014
:103DE800C3B203F06002402A06D003F07F033F2BE2
:103DF80008BF40F04000704720F04000704700BF07
:103E0800037863B1002259B210F8013F5218002B11
:103E1800F9D1C2F38110821802F03F0070471846AA
:103E2800704700BF024B00219A6819605A607047BA
:103E38009C2A0020034B1A681AB9596801F8010B2B
:103E4800596070479C2A00200348002208B5C260C8
:103E58000369984708BD00BF9C2A0020034BD86817
:103E68001A6859685861D9619A6170479C2A00207C
:103E7800034B58699A69D969D86059601A607047C4
:103E88009C2A002010B5114C0346E2689AB1C1B2D1
:103E980001F060004028226A08BF23F0400305D0E3
:103EA80001F07F013F2908BF43F0400318469047BF
:103EB8000023E36010BD94F924C0844502D0216A30
:103EC800884710BD0122E26010BD00BF9C2A002077
:103ED80070B5124DAC6A002C1CDD013C95F92C0024
:103EE80004F0010602F09CFB002C14DD36B1013C05
:103EF80095F92C0002F094FB002C0DDD013C95F99E
:103F08002C0002F08DFB013C95F92C0002F088FB97
:103F1800002CF3DC70BD70BD70BD00BF9C2A002072
:103F280010B50446FFF7D4FF237833B158B202F036
:103F380077FB14F8013F002BF8D110BD6C4B002122
:103F48001A6B30B499620D2403F1470583F82C10DD
:103F5800674983F82D402324AA4208BF03F146028B
:103F680001F1340C08BF1A63CCEB0202002A83F873
:103F7800244066DD4FF07E0C013A81F84CC000F019
:103F88009C802125013A81F84D5000F08F8091F9ED
:103F98003640203C04F0FF05013A4FF020048D62C2
:103FA80081F84E4000F08D8091F837105FFA81FC5F
:103FB8000CF06005402D08BF0CF0BF0106D00CF0D6
:103FC8007F0CBCF13F0F08BF41F0400183F82C1073
:103FD8004021013A83F84F10454C79D094F83810B5
:103FE8002D252039C9B2013A84F8505084F82D1093
:103FF80060D094F839504FF0230C013A84F82450DB
:1040080084F851C06BD04FF04E0C013A84F852C07E
:1040180068D03125013A84F8535066D0012A84F8D3
:1040280054C059D07E2222254FF0200C84F85550D8
:1040380084F8582084F856C084F857201125302475
:1040480002E00D210425232400F1200C83F84940C7
:10405800EA1883F84AC0002001244FF0590C83F86D
:10406800484083F84BC082F8480093F84920002A5A
:104078002BD0204C4FFA82FC14F8012F6044002A00
:10408800F8D1C0F3811C0CEB000202F03F0000F1F4
:10409800200C681CC218EB18174883F848C0002386
:1040A80082F8493082F8481030BC39E70D210625DE
:1040B8002524C9E709252824C6E70D210525242438
:1040C800C2E70D2107252624BEE74FF0200CE0E7C4
:1040D8000D2108252724B7E70D252C24B4E70A2548
:1040E8002924B1E70B252A24AEE70C252B24ABE7BE
:1040F8009C2A0020E52A0020E42A0020154A2030C6
:10410800232300214FF0010C82F84A004E2082F848
:104118004B0082F848C082F8493082F84C1002F10E
:1041280049004FFA83FC10F8013F6144002BF8D195
:10413800C1F3811000EB010C0CF03F0000F1200CE2
:1041480092F82D10044882F84E3082F84CC082F85C
:104158004D10E5E69C2A0020E42A0020154A20306C
:10416800232300214FF0010C82F84A00592082F8DD
:104178004B0082F848C082F8493082F84C1002F1AE
:1041880049004FFA83FC10F8013F6144002BF8D135
:10419800C1F3811000EB010C0CF03F0000F1200C82
:1041A80092F82D10044882F84E3082F84CC082F8FC
:1041B8004D10B5E69C2A0020E42A00202DE9F044A1
:1041C800ADF5866D0DF5846A0AF10C0A02230746DF
:1041D80051460DF58460CDF8243405F003FA044601
:1041E800002833D105466E4603E0ED18E418FCF7C5
:1041F8004BFB4FF480615246304605F059F8E119FF
:10420800031E1A4608463146EFDC2C46504604F099
:1042180071FE0020134904F0B5FE384621460BF024
:104228000BF80DF5806429462A460F4802F034F948
:104238002A460E49204607F0FFFB21460C4801F0AC
:10424800A5FB38460DF5866DBDE8F084DDF82C0435
:1042580004F044FE00240146064802F01DF92546F4
:10426800D4E700BF81420000F81F010020200100B0
:104278005C1601007832010010B502F0DBF910B9C4
:104288004FF0FF3010BDBDE8104002F0DDB900BFAF
:104298002DE9F04EAB488CB016461F4601F056F992
:1042A800002800F07A810021102206F0E9FA04467D
:1042B8004346012E9D6808DD00211022786806F02B
:1042C800DFFA032E044600F06B812E4638689E49BB
:1042D800FCF7E4F80746002821D19C4821463246DD
:1042E80002F0DAF82046FFF769FFAE4213D02946FC
:1042F800974802F0D1F84CF2503006F0AFFA434636
:104308009D60FEF77FFF4CF2503006F0A7FA02F0EE
:104318009BF91B28FBD138460CB0BDE8F08E8D48C0
:10432800214632468C4F02F0B7F88C498C4A0D234F
:104338004FF0000A232039613A6287F82D3087F858
:104348002400BC60C7F828A087F82CA0FFF77CFDE4
:10435800F9683A687B687961BA61FB614FF0FF3BA5
:1043680007F1340902940395C7F8309002F06CF90C
:10437800012852D00328F9D1029C039D00274FF051
:10438800000A0FE04FF47A7006F068FA02F052F96A
:10439800C0B90AF1010A4FF47A7006F05FFABAF16F
:1043A800640F1AD00AF1010A02F044F90028E9D092
:1043B80002F04AF94FF47A7006F050FA02F03AF92E
:1043C8000028E6D002F040F90AF1010A4FF47A70A9
:1043D80006F044FABAF1640FE4D1204639460AF0EF
:1043E8002BFF0DF1100A5F4839463A4602F054F89F
:1043F8003A465D49504607F01FFB51465B4801F0BD
:10440800C5FAB4F1FF3F00F0EC805948214602F0AC
:1044180043F858480027046067E702F015F944B2EA
:1044280014F0E00F00F0AB8002F00EF945B215F081
:10443800E00F00F0A480A5F1200A0AF0FF0ADA458F
:1044480000F01681F9683B6878687961BB61F861AA
:1044580002F0FAF84FFA80FB1BF0E00F00F08E80B4
:1044680005F0FF03A4F1200C04F0FF020BF0FF0598
:104478009C180CF0FF006419851E002800F0BC8011
:10448800012D40F3FF8002F0DFF8C1B248B210F00E
:10449800E00F05F0010371D000F0FF02A418013D00
:1044A800BBF1440F00F02A81BBF1530F00F01A81D1
:1044B800012D40F3E780ABB102F0C6F8C1B248B2B3
:1044C80010F0E00F5AD000F0FF03E418013DBBF1F3
:1044D800440F00F08E80BBF1530F00F0F780012DE0
:1044E80040F3D08002F0B0F8C3B258B210F0E00F39
:1044F80044D000F0FF016418013DBBF1440F00F007
:10450800BE80BBF1530F00F0A88002F09DF8C3B243
:1045180058B210F0E00F31D000F0FF02A418013DAE
:10452800BBF1440F65D0BBF1530FD8D1396B0846A6
:1045380000F8013B104B38639842D0D3064A116308
:10454800CDE700BF4810010058200100602001009D
:1045580028210100A02001009C2A00202D3E0000F7
:104568003D3E0000F81F0100202001005C160100FC
:104578000821010054000020E42A0020D34679696C
:10458800BD69FC695046F9603D607C60FFF7B6FD87
:104598005346DA46D3469A46E6E64FF0204487E685
:1045A800B86800210A2206F06BF9064600283FF495
:1045B8008CAE85423FF48AAE0146584801F06CFF44
:1045C8004CF2503006F04AF940468660FEF71AFE73
:1045D8004CF2503006F042F902F036F80D28FBD1C3
:1045E80074E64F4A002717604E4801F055FF01272F
:1045F8007BE6FFF747FC72E702F026F843B213F0B8
:10460800E00FBBD0019302F01FF845B215F0E00FA0
:10461800B4D002F019F840B210F0E00F019BADD011
:1046280003F0FF02111905F0FF028A18941104F033
:1046380003018C1804F03F01203188429ED1A5F176
:104648002004203B04F0FF0C03F0FF0E00F0FF00F5
:104658005F2303FB0EC5841812E7386B024602F885
:10466800013B314B3A639A4224BF304A10634CE70E
:104678007A69BB69F869FA603B607860E8E6FFF739
:1046880001FC42E701F0E0FF40B210F0E00F3FF418
:1046980075AFA31103F00302111901F03F0520358E
:1046A800A8427FF46BAF01F0CFFF4FFA80FCBCF15A
:1046B8000D0F7FF463AFBBF1530F504629D0FFF7BE
:1046C8004DFDBBF1420F1ED0534663E73A6B1648C7
:1046D800134603F8011B83423B63FFF400AF134901
:1046E8000A63FCE6386B024602F8011B0E493A637E
:1046F8008A42FFF4DDAE0D490863D9E60193FFF75E
:10470800C1FB019BD4E6BA687968029C039D8F1AA5
:1047180035E6FFF713FC53463CE700BF24200100B1
:1047280054000020E0200100E42A00209C2A0020F8
:104738002DE9F04EADF5527D06AC48F21F59002721
:10474800C5F2EB194FF0FF3A04F501724E4D049093
:104758003E460392CDF808A0CDF81490BB46B24669
:10476800274601F071FF2968C6B200297ED14FFAA9
:1047780086F9B9F10D0F08D8DFE809F08307078338
:10478800070707070707160707163E704146CB6954
:104798003E4A58680137904203D001F05FFF002875
:1047A8006FD1039EBE42DCD83A46101B0023002876
:1047B80056465F46137064DB2046D1A9D0AA88AB61
:1047C80004F0CCF900285CDB013808281AD8DFE8A7
:1047D80000F00505051919192A2A2A00D09B049802
:1047E80088A900EB030BD19A5846FCF74DF8D199EC
:1047F800029A4B1E03EB0B095A4528BF5A464E45F1
:10480800029200D3B1462E685EB9059B013783FB3F
:10481800073EF817C0EB6E1C642202FB1C710029CE
:104828002AD04E469AE7DDF808A0741CCAEB0404A7
:1048380042F2107006F012F82346324614485146E8
:10484800C8AD009401F028FE504621460AF0F4FC59
:1048580022461049284607F0EFF829460E4801F08D
:1048680095F8D0980DF5527DBDE8F08E4FFA86F98F
:10487800484601F0D5FE7CE72E2001F0D1FE4E46D9
:104888006CE74FF0FF30EDE7E400002051660000D0
:1048980058210100581601005C16010038B52D4852
:1048A80014461D4600F052FE18B190F90030312B25
:1048B8003FD0294B0021022C19603FD00024274803
:1048C80001F0EAFD2046FFF733FF002504460DE01E
:1048D8004FF47A7005F0C2FF01F0ACFEA8B90135BB
:1048E8004FF47A7005F0BAFF642D17D0013501F046
:1048F800A1FE0028ECD001F0A7FE4FF47A7005F075
:10490800ADFF01F097FE0028E9D001F09DFE0135CA
:104918004FF47A7005F0A2FF642DE7D1B4F1FF3FA0
:1049280013D00F48214601F0B7FD0E4A002014604D
:1049380038BD09480122022C0260BFD168680021F5
:10494800102206F003F80446B9E7074801F0A4FD71
:10495800012038BDC0210100E4000020CC21010065
:104968000821010054000020F0210100022A2DE94D
:10497800F04414461D4629DD00211022586805F030
:104988007FFF154B00211F681022C719A86805F082
:1049980077FF394602468246002005F01FF90AF1E2
:1049A800FF320646D21939460C48334601F074FDE9
:1049B800032C02D10020BDE8F084E8680021102211
:1049C80005F05EFF06600020BDE8F08401F07CFA87
:1049D8000120BDE8F08400BFFC2A0020A4220100C9
:1049E800012A08B50CDD58680021102205F048FF9F
:1049F800014607480160074801F04EFD002008BD48
:104A0800034B0448196801F047FD002008BD00BFAA
:104A1800FC2A0020CC2201002DE9F04E012A84B0A6
:104A280014461D461FDD00211022586805F028FF96
:104A3800022C01901AD000211022A86805F020FF4E
:104A4800032C824616D000211022E86805F018FFD2
:104A5800042C834600F0AE8028690021102205F05E
:104A68000FFF03900AE04FF02047019740F2000A39
:104A7800CAF2F03A4FF0000BCDF80CB001270297BC
:104A88004FF0000901F0EAFD002840F08280039A07
:104A98000299131E18BF01239142D4BF002303F0CB
:104AA8000103002B7CD1454A4548594601F0F4FCE6
:104AB800019A52455ED2019BD44343F804BB04EBF0
:104AC8000A005345C0F380020BEB07010ED222B156
:104AD80043F8041BC919534508D21A4642F8041B67
:104AE800CE195E60131DF1195345F6D3354801F010
:104AF800BBFC01995E46CB4303EB0A0C1CF0040F88
:104B08000C4614D001990A685A4509D02E485B46CC
:104B180001F0C2FC01F0A2FD00283AD109F1010917
:104B280001990C1D544538BF0BEB070625D22568A3
:104B38002146B5422A463346234806D001F0ACFC4C
:104B480001F08CFD28BB09F10109251DF619554511
:104B5800294633461C4810D26468B442224606D01F
:104B680001F09AFC01F07AFD98B909F101092C1DB0
:104B7800F619DCE7134801F077FC029ABBF1000F45
:104B8800B4BFCBF1000B6FEA0B0B501C02907F42B5
:104B980078E70A2001F044FD012004B0BDE8F08E5A
:104BA8000A4801394A4601F077FCB9F1000018BFFC
:104BB8000120F2E70021039160E700BF38230100DC
:104BC800102301003C23010048230100E4220100D6
:104BD800022A70B51E462EDD0421186801F052F92C
:104BE800051E2ADB00211022706805F049FE00210D
:104BF80010220446B06805F043FE01281FD0042D9A
:104C08002AD0022D40D0002857D0461E224612F83E
:104C1800011B06F001053146002EF6D01DB1013208
:104C2800711E6378F1D0134613F801CB52785A1CE1
:104C38000239EAD0F7E701F047F9012070BD042DE9
:104C480004D0022D05D023782378FCE72368236855
:104C5800FCE723882388FCE700282DD0431E224642
:104C680052F8041B03F001051946002BF6D01DB1BC
:104C7800043201396368F1D0164656F8045B52686D
:104C8800321D0239EAD0F7E7A8B1431E224632F8AE
:104C9800021B03F001051946002BF6D01DB10232A4
:104CA80001396388F1D0154635F802CB5288AA1C21
:104CB8000239EAD0F7E7FEE7FEE7FEE7042A2DE926
:104CC800F8461D4604D001F0FFF80120BDE8F8863B
:104CD8001146186801F0D6F8041E47DB002110229F
:104CE800686805F0CDFD264E002110228246A8688E
:104CF800376805F0C5FD002181461022E86835684F
:104D080005F0BEFD034600282DD010F0010F5744D2
:104D18004D4420D1042C2FD0022C15BF3A783A8864
:104D28002A702A80013B3F192D1914E0022C0BBF71
:104D380038883A7828802A70013B1AD039192A19FC
:104D4800042C0DD0022C15BF08780888107010802C
:104D5800013B0F191519042CE8D13A682A60EBE7D2
:104D680038592851F4E7074801F07EFB0120BDE8D7
:104D7800F8861846BDE8F8863A682A60D2E700BF88
:104D8800FC2A00207C2301002DE9F046042A83B088
:104D98001D4606D001F098F80126304603B0BDE85C
:104DA800F0861146186801F06DF8041E68DB0021D2
:104DB8001022686805F064FD434E002110228246E7
:104DC800A868376805F05CFD002181461022E86874
:104DD800356805F055FD8446002853D009EB0503D6
:104DE800002510F0010F0AEB070123D1042C42D053
:104DF800022C60D00A781E78B24256D109191B19C4
:104E08000125042C18D0022C26D00A781E78B2422C
:104E18004BD10135AC45284635D009191B19042C4E
:104E280015D0022C22D00A781E78B2423DD1451CFA
:104E380009191B19042CE6D10A681E68B242E8D089
:104E48002248009601F028FB0126214A23E00A683F
:104E58001E68B242EBD0F3E70A881E88B242D8D067
:104E68001C48009601F018FB01260FE00A881E88EE
:104E7800B242DCD0F4E70A681E68B242BED0DFE76F
:104E880001268AE70546042C1AD00026124B134A3D
:104E9800022C18BF1A461248124B2946012D08BF8A
:104EA8000346114801F0F8FA77E71048009601F038
:104EB800F3FA0126EAE70A881E88B2429ED0CFE7B5
:104EC8000026034AE7E700BFFC2A002090230100E0
:104ED8004C240100C823010040240100482401009B
:104EE8003823010014220100542401000824010081
:104EF8002DE9F0441446033A012A9A4604D900F0F1
:104F0800E3FF0120BDE8F0840421186800F0BAFF2F
:104F1800051E41DD00211022DAF8040005F0B0FC7E
:104F2800244B00211E6810228619DAF8080005F0C3
:104F3800A7FC042C074632D0002313F0010F17D129
:104F4800042D08BF376005D0022D0BBF39463A46FD
:104F580031803270EBB1013B7219042D15D0022D4E
:104F680015BF39463946117011805619013BE7E7DC
:104F7800042D08BF376005D0022D15BF39463A46C3
:104F8800317032807619013BDAE77751013B5619C7
:104F9800D6E70020BDE8F0840120BDE8F084DAF807
:104FA8000C000021102205F06BFC0028F1D0431EF4
:104FB800C3E700BFFC2A00202DE9F04E022B82B087
:104FC8000C46DDF828A056D1384F12F001097D684B
:104FD800BE6854D0DFF8E8A00DF10409C6F1000B53
:104FE8003348294601F058FA042E2CD0022E0BBF64
:104FF800304831482988297801F04EFA2F4803F0C3
:1050080099FA0346002828D0012803D19AF90020EC
:105018002D2A22D049461022294805F031FC019951
:10502800514522D0042E08BF286003D0022E0CBFA1
:1050380028802870002CD3D0AD191D48294601F0CE
:105048002BFA042ED2D11F48296801F025FA1B48F3
:1050580003F070FA03460028D6D1002CC0D0002BEC
:105068000CBF33465B46ED18BAE7BE607D60002092
:1050780002B0BDE8F08E00F027FF0120F8E7042118
:10508800DAF8000000F0FEFE061E0CDBDAF8040079
:105098004946102205F0F4FB3D68DFF824A04519C5
:1050A8000DF104099AE70120E2E700BFFC2A00207D
:1050B800782401008824010090240100982401002C
:1050C800682B00208024010000B5944683B000932B
:1050D8000A4663460021FFF76FFF03B000BD00BF1B
:1050E80000B5944683B000930A4663460121FFF752
:1050F80063FF03B000BD00BF2DE9F04E214CDFF87F
:1051080088A0012A84B091469B46E6682569DAF8AA
:10511800007033DD11F00101039110D104211868EA
:1051280000F0B0FE051E27DB1022DBF8040003990F
:1051380005F0A6FB26688619B9F1020F14D11020D4
:1051480090FBF5FC3146304607FB05662A463B4690
:10515800CDF800C004F096FDCAF800702561E6603D
:10516800002004B0BDE8F08EDBF808000399102297
:1051780005F086FB0746E2E70120F2E700F0A4FE0F
:105188000120EEE7FC2A0020E80000202DE9F04489
:10519800054688B084480E4614461F4600F0D6F9E6
:1051A80028B10021102205F06BFB804B1860022CFF
:1051B8000FD0032C6ED0012C1DD0304600F084FE99
:1051C8006FF04F0002F060FE0124204608B0BDE8F1
:1051D800F08407A91022786805F052FB7C688246A3
:1051E8002046FBF7E1F907992018884240F0BE8075
:1051F8006E4AC2F800A0502002F046FE2846FDF78D
:105208003DF8041E5ADB512002F03EFE684908684A
:10521800002866D1674A106800286ED1664991F95E
:105228000000002876D1654991F90030002B79D12A
:1052380063490868002840F08B80624A106800289B
:1052480042D1614B1868002874D1604991F9000077
:10525800D0B9A4B1554D2146286809F0EDFF5C4846
:1052680000F074F930B15B49FBF718F904460028DF
:1052780000F082800024542002F006FEA5E76FF0BB
:10528800510002F001FEA0E7534800F07FFB002C1C
:10529800E0D1F4E700211022786805F0F1FA434BD9
:1052A80080221860B9684D48FCF75EFB502002F078
:1052B800EBFD2846FCF7E2FF041EA4DA6FF050006D
:1052C80002F0E2FD012480E701AD2946FCF7D0FB9E
:1052D8002946434800F05AFB3B4B18680028B4D0D5
:1052E80028E001AD2946FCF7C3FB29463D4800F0FC
:1052F8004DFB304A1068002890D001AD2946FCF7D4
:10530800B7FB2946384800F041FB2B4991F90000CA
:10531800002888D0354800F039FB284991F9003039
:10532800002B85D0324800F031FB25490868002859
:1053380083D00DE001AD2946FCF79AFB29462D489C
:1053480000F024FB214991F90000002881D09BE757
:1053580001AD2946FCF78CFB2946274800F016FBCF
:10536800184A106800283FF46CAFADE71B4879680D
:105378008022FCF7F9FA3EE73A6829681F4801924B
:10538800029401F089F8522002F07EFD21460122A4
:10539800304601ABFEF716FC041EBFF66CAF6FF08B
:1053A800520002F071FD10E748100100540000207F
:1053B800240F0020200F0020CC270020EC270020FD
:1053C800F80E0020100F0020A8270020AC2700208E
:1053D8002C1F010024150100F425010030280020AD
:1053E800701501005C15010068150100D425010045
:1053F800E0250100EC25010040100100FC2501001A
:1054080001460120C2E600BF01460320BEE600BFF8
:1054180001460020BAE600BF014B1868704700BF7C
:10542800EC000020F8B504460D4600E0013428469B
:10543800277801F03BFF6E1C874205D1237835465B
:105448003D2BF3D13046F8BD207818B14FF0FF3628
:105458003046F8BD284601F029FF3D28F2D04FF02C
:10546800FF36F5E72DE9F84605460C4692464FF01B
:10547800000940F6FF77484601F018FF00284DD094
:1054880019F0010F4E4614D0484601F00FFFA8B19D
:10549800B94543DC09F10106304601F007FF68B160
:1054A800BE4206F10106304638DC01F0FFFE28B1A5
:1054B8000136304601F0FAFE0028F1D14946284667
:1054C800FFF7B0FFB0F100092CDB00251AF0010F3F
:1054D80008D00125BAF1000F19D001F0E7FE04F851
:1054E800010BA0B105EB090001356B1E9A450ED9D9
:1054F80001F0DCFE014604F8011B05EB090031B19F
:1055080001F0D4FE013504F8010B0028EAD1554515
:10551800284605D100222270BDE8F8864FF0FF30FA
:10552800BDE8F88606F10109A5E700BF08B5054BF7
:105538000548196800F0B0FF01F02AFF003818BFCD
:10554800012008BD28080020DC2601002DE9F041D3
:105558000646002740F6FF75384601F0A7FE0028EA
:1055680023D017F0010F3C4610D0384601F09EFEBC
:1055780088B1AF4219DC7C1C08E0AC4204F101049C
:10558800204612DC01F092FE28B10134204601F0D9
:105598008DFE0028F1D139463046FFF743FF002839
:1055A80006DBBDE8F04101F075BE0020BDE8F081E2
:1055B800671CD1E72DE9F04E4446236884B00020EB
:1055C80089469246019301F065FE0746002800F0DF
:1055D8008980DAF804603D213046FAF7ABFF40B124
:1055E8003146844800F058FF0124204604B0BDE845
:1055F800F08E814801684A1C02603B7893B13D46B1
:105608003C461BB114F8013F002BFBD1E91B304687
:10561800FFF708FFB0F1000B08DA6378651C2BB1BF
:105628002C46EEE71C463D464FF0FF3B304673499B
:10563800FAF734FF002840F0BF80B9F1020F53DDBC
:10564800DAF8081000F0E6FE00284BDBBBF1000F8B
:1056580012DB6B49DAF80400FAF720FF014618B3A9
:105668006378621C002B40F0B480AF4228BF2B70D7
:10567800C0F0218100246C70B9F1020F40F3A580BD
:10568800DAF80820002A00F0A0803B4613F8012B26
:105698003C462AB962786AB301330134002AF9D04A
:1056A800627801330134F9E70A22DAF8080005F0D4
:1056B800E7F8B0F5165F834600F03381B0F5964FF2
:1056C80000F02F81B0F5164F00F02B81B0F5614F37
:1056D80000F02781B0F5E13F00F0238101464948F9
:1056E80000F0DAFE012480E73146474800F0D4FE96
:1056F80001247AE73046A74238BF1C46FAF754FF20
:10570800A9F1030B851C0BF00101DAF808000091E0
:10571800FAF74AFF013000EB050B0325A945009B6A
:1057280019DD43B1DAF80C00FAF73EFF0425013021
:10573800A94583440FDD5AF82500FAF735FF0135EE
:10574800421C5AF825009344FAF72EFF0135431CF2
:10575800A9459B44EFDC07F57E671C373F1B5F4577
:10576800C0F2AB803078207028B116F8011F04F819
:10577800011F0029F9D1022002280CBF4FF03D0C6F
:105788004FF0200C5AF82010002384F800C0CA5C9F
:10579800013304F8012F002AF9D101304845EBD133
:1057A800627001F09BFDDAF804001849FAF776FEFA
:1057B80000282FD1002418E730461549FAF76EFE65
:1057C800002840F08080012037E701F087FD0024A1
:1057D8000BE72B70537805F8013F2BB1E3780134C0
:1057E80005F8013F002BF9D1E378002B3FF442AFD5
:1057F8000134F5E7FC260100EC0000203427010005
:1058080034100100902701004C270100AC1301005F
:105818003C270100DAF804004D49FAF73FFE034639
:10582800002859D1019CDAF80800636000286AD082
:1058380003AC0A22214605F023F8039BC5B293F96D
:10584800002002B10133002B5ED0184621460A22FF
:1058580005F016F8039BC0B293F9001040EA05253D
:1058680001B10133002B50D018460A22214605F019
:1058780007F8039B5FFA80FC93F900204CEA0525A2
:1058880002B10133002B41D0184621460A2204F008
:10589800F7FFC3B243EA05252B0643EA156005F472
:1058A8007F42019C40EA022E05F47F054EEA15214D
:1058B8006160002499E6013DDCE63146254800F0A8
:1058C800EBFD012491E630462349FAF7E7FD00286D
:1058D8007FF4BCAE0230B0E6DAF804001F49FAF7EC
:1058E800DDFD0446A0B1DAF804001D49FAF7D6FD3B
:1058F800044600287FF45EAFDAF8081019488022C1
:10590800FCF732F871E605462D022D022D02C3E799
:105918002146DAF80800102204F0B2FF12490860A4
:1059280063E65946114800F0B7FD4CF2503004F0D8
:1059380095FF4346C3F808B0FDF764FC4CF25030BD
:1059480004F08CFF00F080FE0D28FBD188E600BF34
:1059580040100100602701004427010048100100A1
:105968005410010030280020540000202420010099
:10597800012A10B505DD084611461A46BDE8104053
:1059880018E600F0A1FA012010BD00BF00B50C4ACE
:1059980085B00023009201900291039311B191F90F
:1059A800000030B9002002216A46FFF703FE05B067
:1059B80000BD184603216A46FFF7FCFDF7E700BF64
:1059C800B42701002DE9F044002588B007468DF87A
:1059D8001C500C4649B303AE284601F067FC28B3B7
:1059E800022C42D0284601F061FC013503468DF8AF
:1059F8000C004FF0010A284683B101F057FC08A9B2
:105A080001EB0A020AF1010ABAF1100F034602F883
:105A1800140C0FD001352846002BEED1012C17DDD0
:105A280000F01CFEF0B9002CD6D10025284608B09D
:105A3800BDE8F084012CC8BF4FF0000AEADC30460C
:105A480001934FF0000A00F00FFD0135019BE2E7DA
:105A5800BAF1000F10D10A2000F0E2FD00F0FEFDBF
:105A68000028E0D04FF0FF35E0E738462946FFF739
:105A7800D9FC04EAE074B5E7304600F0F5FCEAE743
:105A8800012A2DE9F04414461F4655D061DD5D68B2
:105A9800022128464FF0000A02F00106FFF792FFA4
:105AA80000283BD10225AC4235DDA6B1BE682946A7
:105AB8003046FFF787FF002837D10135AC420ADCB2
:105AC80029E057F8265002212846FFF77BFFC8B97E
:105AD800751CAC421FDD6E1C57F825500221284664
:105AE800FFF770FF0028ECD029461C4800F0D4FCD2
:105AF80057F82650022128460AF1010AFFF762FFEB
:105B08000028E5D029461548751C00F0C5FCAC42B4
:105B18000AF1010ADFDC5046BDE8F08429460F4847
:105B280000F0BAFC4FF0010ABCE731460B4800F020
:105B3800B3FC0AF1010AC0E700201146FFF742FF53
:105B4800011EB8BFA246E6DB054840F6FC7200F02D
:105B5800A3FC4FF0000A5046BDE8F084E02701009E
:105B6800BC2701002DE9F04E012A86B01646824670
:105B78001C4629DDD3F804908B494846FAF78EFC79
:105B8800251D024600287DD0884F3868002800F07F
:105B9800E08048468649FAF781FC20B148468549A5
:105BA800FAF77CFC48B9042E13DC8348616800F0DE
:105BB80073FC012006B0BDE8F08E48467F49FAF72D
:105BC8006DFC002800F0CA80504600F07DF90120E5
:105BD800F0E70DF1140A51461022686804F050FEEF
:105BE8006A68064692F900100029DED0059890F9F7
:105BF8000030002BD9D151461022A86804F040FE8D
:105C0800AA68814692F900100029CED0059890F92B
:105C18000030002BC9D151461022E86804F030FE4C
:105C2800EA68824692F900100029BED0059B93F9D4
:105C38000050002DB9D1002E00F00C8160685C493D
:105C4800FAF72CFC002840F0E380D7F800B0039462
:105C58005F46B346064601E0A14436194FF6FA748A
:105C6800A24538BF544649460BEB0603FD68384643
:105C78002246A847002840F0E680BAEB040AEBD198
:105C8800002097E7013E012E5ED005AF68683946CF
:105C980004F0F6FD0446686890F90030002B53D0F4
:105CA800059991F900301A1E18BF01223A2B0CBF32
:105CB800002202F00102002A46D13A2B1CBFA1465D
:105CC800144661D0022E1ED14AF6E07AC0F21D2A8F
:105CD800032352462046494609F048FB054600285A
:105CE80000F08F80314E306808B109F0BBFAAB681C
:105CF8006A68990A324835602346CDF8009000F06A
:105D0800CBFB002056E7A8683946002204F0B8FD0E
:105D1800AB68824693F90000B0B1059991F900305B
